:020000040800F2
:10000000880400204901000851010008530100083C
:1000100055010008570100085901000800000000C0
:100020000000000000000000000000005B0100086C
:100030005D010008000000005F0100086101000888
:100040006301000863010008630100086301000800
:1000500063010008630100086301000863010008F0
:1000600063010008630100086301000863010008E0
:1000700063010008630100086301000863010008D0
:1000800063010008630100086301000863010008C0
:1000900063010008630100086301000863010008B0
:1000A00063010008630100086301000863010008A0
:1000B0006301000863010008630100086301000890
:1000C0006301000863010008630100086301000880
:1000D0006301000863010008630100086301000870
:1000E0006301000863010008630100086301000860
:1000F0006301000863010008630100086301000850
:10010000630100086301000863010008630100083F
:10011000630100086301000863010008630100082F
:10012000630100086301000863010008630100081F
:10013000DFF810D000F04AFB004800472D280008E7
:10014000AFF3008088040020064880470648004737
:10015000FEE7FEE7FEE7FEE7FEE7FEE7FEE7FEE777
:10016000FEE7FEE7B11E000831010008D2B201E04F
:1001700000F8012B491EFBD270470022F6E710B5AC
:1001800013460A4604461946FFF7F0FF204610BD05
:10019000421C10F8011B0029FBD1801A7047000097
:1001A00070B50F4D00B92868002412E00A4602E03D
:1001B0009E4203D0521C1378002BF9D1DAB22243AD
:1001C00005D02BB124B1002100F8011B04E0044646
:1001D000401C0678002EE9D12860204670BD000042
:1001E0001C0000200022CBB20178994200D10246C7
:1001F000401C0029F8D1104670472DE9FE4F80467B
:1002000081EA0300C00F0C46009021F0004123F06A
:100210000045B8EB0200A94105D240462146904670
:100220001C460B46024623F00040104347D0270DE2
:10023000C7F30A00C3F30A510290401A0190402804
:100240006BDAC3F3130040F4801B0098924620B190
:100250000023D2EB030A63EB0B0B01985946C0F164
:100260004002504600F0A5F906460D465046594654
:10027000019A00F0BDF910EB08006141002487EA03
:10028000115284EAE7731A4340D0009A62B3019A8C
:10029000012A4FEA075215DC001B61EB02014FF007
:1002A000004202EA0752CDE90042001C41F58011EC
:1002B00032462B4600F00BFA03B0BDE8F08F404603
:1002C0002146F9E7001B61EB0201001C41F5801398
:1002D00000185B412018A2F5001747EB030140EA24
:1002E000D570B6196D4111E06D084FEA360645EA42
:1002F000C0754FEA0752001B61EB0201001C41F57B
:10030000801149084FEA30000019514132462B460E
:1003100003B0BDE8F04F00F0CBB9009801224000D7
:100320000023D0EB020263EBE073009821464FEA12
:10033000E074B8EB000061EB0401E9E783F00043EF
:100340005BE781F0004158E72DE9FE4F81EA0304A5
:1003500004F0004421F0004100944FF0000B23F022
:10036000004350EA01045ED052EA03045BD0C3F3B9
:100370000A54C1F30A552C44A4F2F3340194A0FBAF
:100380000254C1F3130141F48011C3F3130343F486
:10039000801301FB024400FB034E840A970A44EADF
:1003A000815447EA8357A4FB076802958D0A05FB31
:1003B00007854FEA932C04FB0C542705029D4FEA56
:1003C000065847EA1637B5EB08056EEB070C870EA3
:1003D000920E47EA811742EA8312A7FB0201B6EBAD
:1003E0000B0164EB00042B0D43EA0C335E1844EB65
:1003F0001C50DA465146E7FB0201C5F313044FEAED
:100400000B3343EA14534FEA0432019C43EA0603D8
:10041000A4F10C040294009CCDE900B400F057F95B
:1004200003B0BDE8F08F00200146F9E72DE9F04D5B
:1004300081EA030404F0004B21F0004514464FF01C
:10044000000A23F0004150EA050220D054EA0102DC
:100450001DD0C5F30A570246C5F31303C1F31300B9
:10046000C1F30A5640F4801543F48013A7EB060845
:10047000101BD64608F2FD3873EB050002D308F1D5
:10048000010801E092185B41B8F1000F03DA002087
:100490000146BDE8F08D00204FF4801106468446E9
:1004A0000EE0171B73EB050705D3121B63EB050367
:1004B00006434CEA010C49084FEA300092185B41B0
:1004C00050EA0107EDD152EA030012D082EA04009B
:1004D00083EA0501084305D0101BAB4106D2012277
:1004E000002306E000224FF0004302E06FF001021B
:1004F00053101AEB06004CEB085110EB0A0041EBCD
:100500000B01BDE8F04D00F0D3B80EB540F2334119
:1005100002910021CDE900110A460B4600F0D7F800
:1005200003B000BD30B50B46014600202022012457
:1005300009E021FA02F59D4205D303FA02F5491BB1
:1005400004FA02F52844151EA2F10102F1DC30BDC7
:100550002DE9F05F0546002092469B4688460646F8
:10056000814640241BE0284641464746224600F08B
:100570002FF853465A46C01A914110D311461846D7
:10058000224600F016F82D1A67EB01084F46224666
:100590000120002100F00DF817EB00094E41201E4C
:1005A000A4F10104DFDC484631462A464346BDE853
:1005B000F09F202A04DB203A00FA02F10020704765
:1005C0009140C2F1200320FA03F319439040704791
:1005D000202A04DB203A21FA02F00021704721FA98
:1005E00002F3D040C2F120029140084319467047FF
:1005F000202A06DBCB17203A41FA02F043EAE073E7
:1006000006E041FA02F3D040C2F1200291400843D3
:10061000194670470FB4002300B589B00CA90091AA
:100620000B996FF00042CB601E4B06931E4B079355
:100630000423CDE901321D4A089202466B46002090
:1006400000F070F909B05DF814FB70B586B006468D
:100650004FF0FF300091CDE90101002015460C4616
:1006600004903246694604A8FFF7D4FF0246049876
:10067000211825B108B1084600E0204628600498FA
:1006800000280DD0002A02DD0098884208D0081BFF
:100690000094CDE901043246694604A8FFF7BAFF89
:1006A00006B070BD5D0B00087B0B0008F107000869
:1006B00010B5141E73F1000408DA401C41F100016A
:1006C00092185B411A4301D120F0010010BD2DE9C1
:1006D000F04D92469B4611B1B1FA81F202E0B0FAB8
:1006E00080F220329046FFF764FF04460F4640EA4E
:1006F0000A0041EA0B0153465A46084313D01146FB
:1007000053EA010019D0C8F140025046FFF760FFDC
:1007100005460E46504659464246FFF74AFF0843F3
:1007200005D0012004E020463946BDE8F08D0020C8
:10073000054346EAE0762C4337430A986305E40A0A
:10074000A0EB08000022FD0A44EA47540A3002D513
:1007500000200146E9E7010510196941DDE9084576
:1007600000196941BDE8F04DA2E7C1F30A52C1F397
:10077000130140F2FF3341F480119A4202DA002063
:100780000146704740F233439A42A2F2334202DC00
:100790005242FFF71DBFFFF70CBF000030B5041E2B
:1007A00071F1000404DB4FF00044404264EB0101AE
:1007B000141E73F1000405DB1C464FF00043524247
:1007C00063EB0403994208BF904230BD064C074DCD
:1007D00006E0E06840F0010394E807009847103411
:1007E000AC42F6D3FFF7A8FC68B8000888B8000848
:1007F000C0B24FF4F05100F0D1B900002DE9FF4F25
:10080000087883B09946FF2805D0491C2D2804D0CC
:100810000024002008E000200BE00124F9E700EBB1
:10082000800003EB4000491C0B78FF2BF7D104B18B
:10083000404200230293147819461D462D2C01D006
:100840002B2C04D1521C2D2C13D000240294AA4628
:100850001478FF2C0FD00A25A3FB057801FB058136
:100860004FF0000C03FB0C11521CE3194AEB010181
:10087000EEE70124EAE7814453EA010002D019F5CA
:10088000C87F06DA03980021C0E9001107B0BDE86F
:10089000F08F0025AE4E2F46DFF8B882184600F0E4
:1008A00091F9CDE90001B9F1000002DAC9F10004C3
:1008B00000E004460023A74A1AEB030B42EB045A5C
:1008C00012E0E00707D02A46334638464146FFF794
:1008D0003BFD074688462A46334610461946FFF731
:1008E00033FD05460E466410002CEAD1DDE9000117
:1008F000B9F1000F5A46534606DAFFF797FD3A461C
:100900004346FFF793FD05E0FFF71EFD3A464346D9
:10091000FFF71AFD029A0AB181F00041039AC2E979
:100920000001B3E72DE9FF4F1F468DB0D7E901461F
:100930004FF0FF382E2045464FF000090B90B96963
:100940006D1C0E988847396A824688470028F6D180
:10095000BAF1FF3F0AD024F4D064002E11DDBAF1C1
:100960002B0F08D0BAF12D0F0BD102E0404611B089
:100970008DE744F48064B9696D1C0E9888478246FF
:10098000761E6946600501D52D2000E02B208DF8EC
:10099000000001F1010B0DF1200809E0B9696D1C9F
:1009A0000E98884782460F9844F40074761E0560BE
:1009B000002E02DDBAF1300FF0D00B998A453ED1FE
:1009C00044F0800406E00F99681CA9F1010944F481
:1009D00000740860B9696D1C761E0E9888478246BF
:1009E0003028F0D02BE00B998A4505D1200603D49E
:1009F00044F08004761E18E0504601F07FFB08B3F7
:100A00000DF11301761E44F400748B4508D2AAF14F
:100A100030000BF8010B200607D5A9F1010003E017
:100A2000200602D409F101008146A00502D50F99E4
:100A3000681C0860B9696D1C0E9888478246002EB4
:100A4000D1DC53E0002E51DDBAF1650F02D0BAF1CE
:100A5000450F4BD1A00549D5B9696D1C24F44074EC
:100A6000761E0E9888478246002E0CDD2B2804D077
:100A7000BAF12D0F07D144F48074B9696D1C0E983A
:100A800088478246761EE00501D52D2100E02B2106
:100A900008F8011BCDF82C8021E00DF12901761E0C
:100AA00044F4007488450CD2AAF1300010F0FF0025
:100AB00088F8000002D10B99884509D908F101088E
:100AC00006E0E00501D5244801E042F20F708146BE
:100AD000B9696D1C0E98884782460F980560002EF4
:100AE00004DD504601F00AFB0028D6D1F9690E98C2
:100AF0008847FF208BF8000088F80000002006904F
:100B000007904B466A4608A906A8FFF777FEA0059E
:100B100002D46FF001002AE714F0240F0AD0E00796
:100B200014D1DDE906123868031D3B600068C0E996
:100B300000120BE0DDE9060100F050F80146E00785
:100B400004D13868021D3A600068016028460EE74B
:100B5000000014400000F03FF1D8FFFF426842B1AE
:100B6000016811F8013B23B1521EC0E9001218467A
:100B700070470121C160881E704742685AB1C3683E
:100B8000016843B983688B4205D0491E521CC0E9F5
:100B90000012002070474FF0FF3070477F2801D9C6
:100BA000002208E0064A02EB5002C007127800D18A
:100BB000120902F00F020120904008407047000027
:100BC00028B800080EB540F2334202920022CDE967
:100BD00000221346FFF77BFD03B000BD01F0004388
:100BE00030B421F0004150EA010206D00A0DA2F50E
:100BF0006072C1F31301002A02DC30BC0020704790
:100C0000440F44EAC104C100E01830BC00EBC250FC
:100C1000AFF300800029A8BF7047401C490008BFFF
:100C200020F00100704710B4B0FA80FC00FA0CF01C
:100C300050EA010404BF10BC704749B1CCF1200454
:100C400021FA04F411FA0CF118BF012121430843E1
:100C5000A3EB0C01CB1D4FEA00614FEA102042BF0D
:100C6000002010BC704700EBC35010440029A4BF03
:100C700010BC7047401C490008BF20F0010010BCA8
:100C8000704700007CB504460D4632210A48FFF744
:100C900074FA22462B4609A1074801F049F90020C1
:100CA0004FF47841044B1822CDE9001078210A2036
:100CB00000F0A4FF7CBD0000240000207464733D9C
:100CC000252E326620202020202020200000000039
:100CD00010B500F0E9FD002000F0CEFD10BD0000D1
:100CE0002DE9FF5F00F01AFD04460D4622462B4613
:100CF00020462946FFF728FB06460F4600BF22463E
:100D00002B464FF033301049FFF71EFB32463B466F
:100D1000CDE902010D480E49FFF716FB80468946D2
:100D200032463B460B480C49FFF70EFB82464246D3
:100D30004B46FFF703FBCDE90001DDE90223FFF796
:100D40005CFA04B0BDE8F09F33CB7A40EC51B81E9A
:100D500085FB5F403D0AD7A370AD504010B500F051
:100D6000D6FC10BD7FB50120754B002211460090C6
:100D7000104600F0A4FF7248007800283BDD704860
:100D80000078FF2837DA6E4800786E4B0122002188
:100D90000090084600F093FF6BA16A48FFF700FA45
:100DA0000446002101F080FD684A03C266A10020CC
:100DB000FFF7F6F90446002101F076FD644A03C20C
:100DC0005C2164A0FFF70EFA28B15C2161A0FFF757
:100DD00009FA401C00E05FA004465D4903C9CDE963
:100DE00002015A4803C82722CDE90001214662A02A
:100DF00001F08EF87FBD1F20C10266A31822CDE945
:100E0000001078210A2000F0F9FE1F20C10266A31D
:100E10001822CDE90010A4210A2000F0EFFE00F016
:100E200085FA00F0DDFC6B4908601F20C1026AA34F
:100E30001822CDE90010A4210A2000F0DFFE5C2179
:100E400044A0FFF7CFF928B15C2142A0FFF7CAF90F
:100E5000401C00E03FA004465E4841222146036852
:100E600069A001F055F800F061FA00F0B9FC6B4997
:100E7000086058480068FFF748FB354A03C26749D5
:100E80000968544A1268881AFFF73FFB044600229B
:100E9000634BFFF7CBFA2D4A03C22D4803C8CDE9B7
:100EA00000012A485FA10CC8264801F041F82548F6
:100EB000FFF76EF9224908705C2126A0FFF792F92E
:100EC00028B15C2123A0FFF78DF9401C00E021A090
:100ED000044640480068009050485022214603686C
:100EE00053A001F015F85C211AA0FFF77BF928B197
:100EF0005C2118A0FFF776F9401C00E015A004461D
:100F00000F4800780F4B5122214600904EA000F070
:100F1000FFFF0021084600F0AFFE0120084B002231
:100F200011460090104600F00AFF05480078054B76
:100F3000012200210090084600F001FF00BF59E7A0
:100F400018000020560000202300000000000020B0
:100F5000080000206170705C77617465725F6C6579
:100F600076656C5C4170705F57617465724C657634
:100F7000656C2E63000000005B25733A25645D2DCF
:100F80002D613D252E32662C20623D252E32660DC8
:100F90000A00000053746172742043616C696272CC
:100FA0006174652E2E2E0000446F206E6F742070C9
:100FB000757420696E746F2077617465722C20746B
:100FC00068656E207072657373206B6579332E2EA1
:100FD0002E00000010000020506C656173652070C9
:100FE000757420696E746F2077617465722031307A
:100FF000636D2C207468656E205072657373206B6E
:101000006579332E2E2E00005B25733A25645D2D05
:101010002D79313D25640D0A0000000014000020E8
:1010200000002E40252E326623252E326600000059
:101030005B25733A25645D2D2D79323D2564202092
:1010400079313D25640D0A005B25733A25645D2DD9
:101050002D2573206C656E3D25640D0A000000008F
:1010600010B500F0B9FB00F026FEFFF77BFE10BDC7
:1010700010B500F0D3FA00F021FB10BD00B5034617
:1010800003E04FF47A7000F006F8181EA3F1010196
:101090008BB2F6D100BD00EBC001C9004FF0E022D9
:1010A0005161002191610521116100BF4FF0E021E4
:1010B000096901F480310029F8D04FF0E021096975
:1010C00021F001014FF0E0221161704747480068AC
:1010D00040F00300454908600846006840F00800F9
:1010E00008600846006820F0040008604048006876
:1010F00040F033003E490860081D00683D49084340
:101100003B49091D08603C48006840F040503A499E
:101110000860081D006840F03330091D086034483D
:10112000006840F08800324908600846006820F0F6
:1011300044000860081D0068304908432C49091D17
:101140000860084600682E4908402949091D0860C2
:101150002948006840F000402749086008460068B8
:1011600020F080400860081D006840F08830091DAC
:1011700008600846006800F0BB3008601C48006842
:1011800040F44C101A4908600846006840F4080012
:1011900008600846006820F488000860134840682A
:1011A00040F44030114948600846406840F400204F
:1011B00048600846406820F4802048601148006874
:1011C00040F003000F4908600846006820F00C005A
:1011D00008600648406840F04050044948600846AE
:1011E000406820F040404860704700000020014007
:1011F00000140140330300330018014088080088C0
:10120000BBFBFFBB000C014000B52748806940F2E2
:10121000E9110843244988610846406940F4807018
:101220004861FFF753FF4FF02040806940F0010014
:101230004FF0204188610846806920F00C008861E9
:101240000846806920F0400088610846806920F0E7
:10125000020088610846806920F020008861084605
:10126000806940F0100088610846806940F4805031
:1012700088610846C06920F00F00C8610846C0694F
:1012800020F0F000C8610846C06920F47F40C861C2
:101290000846C06940F48E40C8610846C06920F025
:1012A0004050C86100BD0000001002401C48806929
:1012B00040F008001A4988611A48006840F440303C
:1012C000184908600846006820F440200860084675
:1012D000006820F4401008600846006820F4000010
:1012E00040F4800008600E48806940F080000C499E
:1012F00088610D48006820F440700B49086008467A
:10130000006820F4806040F40060086006480830FF
:10131000006820F4806004490831086070470000CC
:1013200000100240040C0140041C014010B50FE005
:1013300000BF0848006800F480600028F9D0C82089
:10134000FFF79CFE0348006800F4806000B110BD08
:10135000EEE70000081C01400348008840F480606C
:101360000149088070470000005800401B48C069D0
:1013700040F480001949C8610846806940F00800BF
:1013800088611748006840F47F4015490860154897
:10139000008820F0020013490880081D008840F0F2
:1013A0002400091D08800F481C30008820F40040EC
:1013B0000C491C3108800846008840F0B4000880C1
:1013C000081D008840F02500091D08800548008898
:1013D00040F00100034908807047000000100240FF
:1013E000040C0140005800400B48008840F4807015
:1013F000094A10804FF6FF7101E0481E81B206488D
:101400001430008800F0010008B90029F5D109B1B5
:10141000012070470020FCE7005800400348008886
:1014200040F40070014908807047000000580040F7
:101430004FF6FF7101E04A1E91B2074A128802F08E
:1014400040020AB90029F6D119B1034A121F1288C5
:1014500000E00022D0B270471458004002464FF618
:10146000FF7101E0481E81B20F48008800F0800043
:1014700008B90029F6D10C48001F02804FF6FF7111
:1014800001E0481E81B20848008800F0020008B957
:101490000029F6D111B10448001D008809B10120CE
:1014A00070470020FCE700001458004002464FF649
:1014B000FF7101E0481E81B20D48008800F08000F5
:1014C00008B90029F6D10A48001F02804FF6FF71C3
:1014D00001E0481E81B20648008800F0040008B907
:1014E0000029F6D109B1012070470020FCE7000077
:1014F000145800402D48806941F2140108432B49DB
:1015000088612B48406820F440002949486008461B
:10151000406840F440104860264800682649084367
:1015200024490860084600682449084021490860A9
:101530000846006820F0306008600846006840F007
:10154000806008601E48008840F004001C49088044
:101550000846008840F4007008800846808820F023
:10156000040088800846008840F48070088008469F
:10157000008820F0030008800846008820F038002A
:1015800008800846008840F010000880084600885F
:1015900020F4006008800846008820F08000088061
:1015A0000846008840F04000088070470010024064
:1015B00000100140000801400000B0B0FFFFBFBFB5
:1015C000003001400348C06820F400500149C86061
:1015D00070470000001001400348C06840F400500C
:1015E0000149C8607047000000100140014600BF7B
:1015F0000948008900F002000028F9D006488181DE
:1016000000BF0548008900F001000028F9D0024819
:101610008089C0B270470000003001401D488069D9
:1016200040F480401B4988610846806940F004000E
:1016300088611948006840F0B00017490860084602
:10164000006820F0400008600846006820F4306020
:1016500008600846006840F48060086040F271202D
:101660000E490880081D008820F48050091D08805C
:101670000846008820F480600880081D008820F457
:101680004050091D0880081F008840F00800091F0D
:1016900008807047001002400408014008380140EB
:1016A00000BF0549098801F080010029F9D00249ED
:1016B000091D088070470000003801400348008879
:1016C00040F4005001490880704700000C38014088
:1016D00010B548F2835424F4E04444F4804424F4E4
:1016E000606444F4007424F4807400BFFFF77CFE4F
:1016F0009020FFF7B3FE0120FFF7D8FE2012FFF77E
:10170000D5FEE0B2FFF7D2FEFFF788FE10BD10B5A0
:10171000FFF72CFEFFF7DCFF10BD00002DE9F041C4
:10172000FFF762FE9020FFF799FE0020FFF7BEFE54
:10173000FFF774FEFFF758FE9120FFF78FFE00249D
:10174000FFF776FE44EA0024FFF706FEFFF770FE7F
:101750000443FFF701FEFFF761FE5C2110A0FEF7D6
:1017600041FD28B15C210EA0FEF73CFD401C00E0CD
:101770000BA0054623463C2229460FA000F0C8FBDB
:101780002046FEF7C2FE0546104A114BFEF7DCFD6F
:10179000074600220F4BFEF749FEBDE8F08100002E
:1017A000696E665C616473313131355C61647331DB
:1017B0003131352E630000005B25733A25645D2DC1
:1017C0002D746D703D25640D0A000000FCA9F1D256
:1017D0004D621040C0FFDF4010B5FFF767FD10BD40
:1017E00070B500241E48006820F480501C49086031
:1017F00000BF1B48001F006800F400500028F8D10B
:10180000002518E01648006840F48050144908602C
:101810000520FFF740FC1248006820F48050104972
:1018200008606400081F006800F4005008B144F02C
:101830000104681CC5B2182DE4DB0948006840F4B7
:101840008050074908600520FFF725FC0448006820
:1018500020F480500249086084F4000070BD00004C
:101860000C0C01400348006840F001000149086089
:10187000704700000C0C014010B504464FF4F073A3
:101880004FF4A0720021084600F0EAF82C2000F086
:10189000E9F900224FF4163303E0204600F0E6F9A0
:1018A000521C9A42F9D310BD10B5FFF7ADFC00F001
:1018B000C1F8FFF7D7FF00F001F810BD10B5E02028
:1018C00000F0D0F9002000F0D1F9072000F0CEF9A7
:1018D000102000F0CBF9092000F0C8F9172000F023
:1018E000C5F90B2000F0C2F9412000F0BFF98920B2
:1018F00000F0BCF94B2000F0B9F90A2000F0B6F96D
:101900000C2000F0B3F90E2000F0B0F9182000F020
:10191000ADF91B2000F0AAF90F2000F0A7F9E12093
:1019200000F0A0F9002000F0A1F9172000F09EF9C6
:101930001A2000F09BF9042000F098F90E2000F026
:1019400095F9062000F092F92F2000F08FF945203C
:1019500000F08CF9432000F089F9022000F086F9AC
:101960000A2000F083F9092000F080F9322000F00D
:101970007DF9362000F07AF90F2000F077F9C020C9
:1019800000F070F9112000F071F9092000F06EF9F3
:10199000C12000F067F9022000F068F9032000F090
:1019A00065F9C52000F05EF9002000F05FF90A201B
:1019B00000F05CF9802000F059F9B12000F052F9F4
:1019C000B02000F053F9112000F050F9B42000F0DD
:1019D00049F9022000F04AF9B62000F043F90A2044
:1019E00000F044F9A22000F041F9B72000F03AF9E4
:1019F000C62000F03BF9BE2000F034F9002000F0D2
:101A000035F9042000F032F93A2000F02BF9552086
:101A100000F02CF9112000F025F9362000F022F911
:101A2000082000F023F97820FFF728FB292000F098
:101A300019F910BD10B50948C06820F400400749E5
:101A4000C8606420FFF71AFB0448C06840F40040F7
:101A50000249C8606420FFF711FB10BD002001405F
:101A600030B504460D462A2000F0FCF8C4F30F20E0
:101A700000F0FCF8E0B200F0F9F8A118491EC1F33B
:101A80000F2000F0F3F8A118491EC8B200F0EEF8DC
:101A90002B2000F0E7F8281200F0E8F8E8B200F098
:101AA000E5F8E918491EC1F30F2000F0DFF8E91846
:101AB000491EC8B200F0DAF830BD00002DE9F04F41
:101AC0000646884614461F46DDF82490A24604EBDD
:101AD000DA70C0F34F022346414630B2FFF7C0FF31
:101AE0002C2000F0BFF8A7F12000C5B2102C01D0C7
:101AF0000C2C2BD1002226E0102C04D13B4800EB0B
:101B00000510805C05E005EB4500394901EB8000DC
:101B1000805C03464FF0000A0EE003F0010018B1AC
:101B2000484600F0A3F802E00A9800F09FF85B1026
:101B30000AF1010000F0FF0A04EBD471BAEB610F67
:101B4000EBDB501CC2B2A242D6DB4DE0182C2AD1EE
:101B5000002225E005EB4500264901EB001010F8B6
:101B600002A0104602EBD0714910A2EB410109B16D
:101B7000042100E008218B4600230DE00AF001005B
:101B800018B1484600F072F802E00A9800F06EF8CA
:101B90004FEA6A0A581CC3B25B45EFDB501CC2B265
:101BA000302AD7DB20E0202C1ED100221AE0124878
:101BB00000EB8510835C4FF0000A0EE003F001009B
:101BC00018B1484600F052F802E00A9800F04EF8CA
:101BD0005B100AF1010000F0FF0ABAF1080FEDDB1B
:101BE000501CC2B2402AE2DBBDE8F08F382D00085D
:101BF000C428000828330008F84400082DE9FC47F1
:101C00000746884614461D46DDE90A9A002624E068
:101C1000A85D0A281AD004EBD47107EB6101B1F575
:101C2000A07F04DD002708EB04001FFA80F8CDE94F
:101C3000009AAB5D224641463846FFF73FFF2046FB
:101C400004EBD07107EB61018FB204E0002708EBD1
:101C500004001FFA80F8701CC6B2A85D0028D7D116
:101C6000BDE8FC874FF0D8410880704701490880E3
:101C7000704700000008006C70B506460C4600F086
:101C80004DF800F097F8300400EB0435FFF79AFCAC
:101C90002020FFF7ABFCC5F30740FFF7A7FCC5F317
:101CA0000720FFF7A3FCE8B2FFF7A0FCFFF794FCC6
:101CB00000F077F870BD10B5FFF71CFC10BD2DE9E2
:101CC000F04780460C4615469946DDF820A000F006
:101CD00025F84FEA084000EB043000EB0526FFF73B
:101CE00071FC0320FFF782FCC6F30740FFF77EFC80
:101CF000C6F30720FFF77AFCF0B2FFF777FC002766
:101D000006E0FF20FFF772FC09F80700781C87B295
:101D10005745F6DBFFF760FCBDE8F08710B5FFF72D
:101D200051FC0520FFF762FC00BFFF20FFF75EFCBF
:101D300000F001000028F8D1FFF74EFC10BD2DE99E
:101D4000F04780460C4615469946DDF820A0FFF77F
:101D5000E5FF00F02FF84FEA084000EB043000EBFD
:101D60000526FFF72FFC0220FFF740FCC6F30740D3
:101D7000FFF73CFCC6F30720FFF738FCF0B2FFF793
:101D800035FC002705E019F80700FFF72FFC781C49
:101D900087B25745F7DBFFF71FFC00F002F8BDE8FC
:101DA000F08710B5FFF70EFC0420FFF71FFCFFF7CC
:101DB00013FC10BD10B5FFF705FC0620FFF716FC5D
:101DC000FFF70AFC10BD10B500F002F810BD0000CE
:101DD0000CB50020019000903348006840F480303A
:101DE0003149086000BF3048006800F400300090BE
:101DF0000198401C0190009818B90198B0F5A06FA7
:101E0000F1D12948006800F4003010B101200090A1
:101E100001E0002000900098012843D12348006889
:101E200040F01000214908600846006820F00700D3
:101E300008600846006840F0020008601A484068E0
:101E4000194948600846406848600846406840F4C0
:101E5000806048600846406820F47C10486008466E
:101E6000406840F4E81048600846006840F0807020
:101E7000086000BF0C48006800F000700028F9D02E
:101E80000948406820F00300074948600846406858
:101E900040F00200486000BF0348406800F00C00BA
:101EA0000828F9D10CBD00000010024000200240BB
:101EB00010B51348006840F0010011490860084659
:101EC0004068104908400E494860084600680E49BD
:101ED00008400B4908600846006820F4802008602C
:101EE0000846406820F4FE0048604FF41F008860F8
:101EF000FFF769FF4FF000600449086010BD000063
:101F0000001002400000FFF8FFFFF6FE08ED00E0C1
:101F10000FB4054B10B503A9044A029800F0F6F877
:101F200010BC5DF814FB00001D28000820000020F4
:101F30000FB4084B10B504A902AA039800F0E6F804
:101F4000044602A9002000F064FC204610BC5DF8A5
:101F500014FB00001328000802E008C8121F08C183
:101F6000002AFAD170477047002001E001C1121F1A
:101F7000002AFBD1704700002DE9FF5F82B00021ED
:101F8000DDE90430020DDDF840B0034318D044F61B
:101F90001050A2F2FF3242431514119801281FD0AD
:101FA000A5EB0B00401C5FEA000A4FF000064E4F05
:101FB000DFF83891B046504615D5CAF1000413E059
:101FC000119801244AA3012801D16FEA0B0102985C
:101FD000119AC0E90031C0E9024206B0BDE8F09FA5
:101FE000CBF10000DFE704460021404A491842EBEC
:101FF0000450CDE9001012E0E00707D032463B461E
:1020000040464946FEF7A0F98046894632463B469F
:1020100010461946FEF798F906460F466410002C44
:10202000EAD1DDE90401DDE90023BAF1000F06DAA7
:10203000FEF78AF942464B46FEF786F905E0FEF7C1
:10204000F5F942464B46FEF7F1F904460E460022EA
:10205000284BFEF7A3FB03D84FF0FF30014607E003
:102060000022254B20463146FEF7C7F8FEF77DFBE0
:10207000102409E0002C0ADB0A220023FEF768FA8C
:10208000039B30321A55641E50EA0102F2D1641CDF
:10209000039AC4F111031444119A012A03D00122B6
:1020A00008430DD10AE0084304D000204FF0110B83
:1020B000119072E7A3EB0B056D1E0DE05B4504DD8F
:1020C0004FF0000205F1010504E003DA4FF00002D1
:1020D000A5F10105002AECD002981199C0E902315E
:1020E000C0E9004579E70000000014400000F03F1F
:1020F000300000000000F0430000E03F30380A28C4
:1021000001D2012070470020704700002DE9FF4FE9
:1021100095B09A46884606460025EEE1252877D1F7
:1021200000242746F94A0121039400E0044316F8ED
:10213000013F203B01FA03F01042F7D130782A2802
:1021400011D06FF02F033078A0F13002092A16D891
:10215000039A44F0020402EB820203EB42021044B1
:10216000761C0390EFE758F8042B0392002A03DA59
:10217000504244F40054039044F00204761C30783A
:102180002E2816D116F8010F44F004042A280DD089
:102190006FF02F023078A0F13003092B09D807EB3C
:1021A000870302EB4303C718761CF3E758F8047B58
:1021B000761C30786C280FD006DC4C2817D06828A5
:1021C0000DD06A2814D104E0742810D07A280FD1D9
:1021D0000DE044F400140AE044F4801401E044F4F7
:1021E00040147278824202D104F58014761C761C69
:1021F000307866280BD013DC582877D009DC00280B
:1022000075D04528F6D04628F4D047281AD193E156
:1022100018E0632835D0642879D0652812D18BE185
:10222000702873D008DC6728F1D069286FD06E2839
:102230000DD06F2806D1ACE073282CD0752874D04F
:10224000782853D05246179990476D1C54E1C4F337
:102250000250022809D003280DD0D8F80010042815
:102260000DD00D6008F1040846E1D8F80010EA1717
:10227000C1E90052F6E7D8F800100D80F2E70D70C2
:10228000F0E718F8041B8DF8001000208DF801000D
:10229000EB46012003E058F804BB4FF0FF30610724
:1022A0004FF0000102D40DE009F101018946B94265
:1022B0000FDA8145F8DB1BF809100029F4D108E09A
:1022C00009F1010189468142FADB1BF80910002956
:1022D000F6D103985346A0EB090721463846179AD2
:1022E00000F080FA284400EB090507E044E008E12B
:1022F0000DE01BF8010B524617999047B9F10109FF
:10230000F7D2534621463846179AF2E039E00A21BF
:10231000C4F302524FF0000B0091022A06D058F885
:10232000040BC117032A09D00AE023E008F10700D3
:1023300020F00702F2E80201904605E000B2C11762
:10234000042A01D140B2C117002906DA0A46002149
:10235000404261EB02012D2202E0220504D52B222E
:102360008DF80420012203E0E20701D02022F7E7E4
:10237000914657E00A2100E010214FF0000B009138
:102380000BE010214FF0000B44F0040408270091EB
:1023900003E008204FF0000B0090C4F30252022A21
:1023A00005D058F8040B0021032A08D008E008F1F2
:1023B000070020F00702F2E80201904603E080B235
:1023C000042A00D1C0B24FF0000922072AD5327882
:1023D000702A07D0DDF800C08CF0100C5CEA0B0C02
:1023E00005D00EE040228DF80420012208E050EADA
:1023F000010306D030238DF804308DF80520022229
:102400009146009B83F0080353EA0B030AD150EA7C
:10241000010201D1620705D530228DF804204FF06A
:1024200001097F1E3278582A04D039A20C920CAAD6
:1024300002920BE03BA2F9E75B46009AFEF788F8B0
:102440000C9B9B5C029A521E0292137050EA01028E
:10245000F2D1029804A9081A00F1200B600702D5F6
:1024600024F4803400E001275F4502DDA7EB0B0078
:1024700000E0002000EB0B01009003984944401A53
:102480000390E00306D453462146179A039800F0C0
:10249000A9F90544002706E001A85246C05D179936
:1024A00090476D1C7F1C4F45F6DBE0030CD553466F
:1024B0002146179A039800F095F9054404E030206E
:1024C0005246179990476D1C0099481E00900029AC
:1024D000F5DC08E00298029952460078491C029106
:1024E000179990476D1CBBF10001ABF1010BF1DCBA
:1024F0005BE100F065F90544761C307800287FF434
:102500000DAE19B02846BDE8F08F00000928010083
:102510003031323334353637383961626364656659
:10252000000000003031323334353637383941421B
:102530004344454600000000600700D4062708F128
:10254000070020F00700F0E80223804603F0004C6B
:102550005FEA0C0001D097A009E0200501D596A004
:1025600005E0E00701D095A001E0AFF24C00139028
:10257000307823F0004365280CD006DC452809D0CC
:1025800046281DD047287FD13BE0662818D0672811
:102590007AD136E00021112F01DB112000E0781CF8
:1025A000CDE9000104A90CA8FFF7E6FCDDE90D0167
:1025B0000C9A4FF0000B07F10109109200914EE0C8
:1025C0004FF000400097CDE9011004A90CA8FFF7D7
:1025D000D3FCDDE90D020C9B0F994FF0000B9146E7
:1025E0001093009211B9791C00EB0109B7EB0900B7
:1025F00003D4C0F1FF3B07F10109A9EB07000190EB
:1026000042E0012F00DA01270021112F01DD112006
:1026100000E03846CDE9000104A90CA8FFF7ACFCA6
:10262000DDE90D010C9A00914FF0000BB9461092B4
:1026300021070FD4009A4A4503DA914601E0A9F137
:102640000109B9F1010F05DD109AA9F10101515CF1
:102650003029F4D0B84202DA10F1040F03DA012174
:10266000CDE9011010E0002803DC8344A9EB000150
:1026700002E0411C494500DD8946A0EB0B00401CEF
:1026800001904FF000400290200705D40198484582
:1026900002DB4FF0FF30019000208DF84B000298D4
:1026A0000DF14B07B0F1004F25D002200C902B20EC
:1026B0000D90029800280CDA404202902D200D90D7
:1026C00007E00A210298FDF72DFF3031029007F84C
:1026D000011D0C99481E0C900029F2DC029800287C
:1026E000EFD1791E0D980870307800F0200040F08E
:1026F000450007F8020D11A8C01BC01D02901398D9
:10270000007800B1012000EB0901019801EBE071B4
:10271000029801440398401A401E0390E00306D437
:1027200053462146179A039800F05CF80544139825
:10273000007818B15246179990476D1CE00323D5D5
:1027400053462146179A039800F04CF805441BE0C5
:10275000BBF1000F07DB0098584504DD109817996E
:1027600010F80B0001E0179930205246904701986D
:102770000BF1010B401E05F10105019004D12E2043
:102780005246179990476D1CB9F10001A9F1010952
:10279000DEDC05E017F8010B5246179990476D1CD7
:1027A0000299481E02900029F4DC53462146179AEC
:1027B00003989EE62D0000002B0000002000000082
:1027C0002DE9F041044600251E461746880404D42E
:1027D00005E039462020B0476D1C641EF9D5284617
:1027E000BDE8F0812DE9F041044600251E469046E3
:1027F000C80301D5302700E02027880404D505E070
:1028000041463846B0476D1C641EF9D52846BDE8E0
:10281000F0810A68531C0B601070704700B50246C7
:102820000B46D0B2FEF73CFF104600BDFEF720FC81
:102830005C2114A0FDF7D6FC28B15C2111A0FDF7A6
:10284000D1FC401C00E00FA004460E2221460FA040
:10285000FFF75EFBFEF73CFAFEF7BEFFFEF700FC5B
:10286000FEF77CFA0CE0FEF73BFA04460D462046E4
:102870002946FEF707FA4FF47A70FEF7FFFB00BF18
:10288000F1E700006D61696E2E6300005B25733A0D
:1028900025645D2D2DCBAED6CACBAECEBBCFEEC45C
:1028A000BF2E2E2E0D0A000000B583B00A4600216F
:1028B000CDE9001101466846FDF7C7FEDDE90001DC
:1028C00003B000BD00000000000000000000000098
:1028D00000000404040404000004000014140A00AE
:1028E000000000000000000000000A0A1F0A0A1F82
:1028F0000A0A000000040E1505060C14150E04004B
:10290000000012150D152E2C2A1200000000040ADA
:102910000A36151529160000020201000000000009
:102920000000000010080804040404040808100053
:102930000204040808080808040402000000000457
:10294000150E0E150400000000000008083E0808DF
:102950000000000000000000000000000202010072
:1029600000000000003F0000000000000000000028
:1029700000000000000200000020101008080404FD
:102980000202010000000E1111111111110E0000C0
:102990000000040604040404040E000000000E11EC
:1029A00011080402011F000000000E11100C10108D
:1029B000110E00000000080C0C0A091F081C000082
:1029C00000001F01010F1110110E000000000C1279
:1029D000010D1311110E000000001E100808040460
:1029E0000404000000000E11110E1111110E000060
:1029F00000000E1111191610090600000000000059
:102A000004000000000400000000000000040000BA
:102A10000004040000001008040202040810000072
:102A2000000000003F003F00000000000000020422
:102A3000081010080402000000000E111108040420
:102A40000004000000001C22292D2D1D221C000066
:102A5000000004040C0A0A1E1233000000000F12CA
:102A6000120E1212120F000000001E1101010101CE
:102A7000110E000000000F1212121212120F0000AD
:102A800000001F120A0E0A02121F000000001F128F
:102A90000A0E0A020207000000001C12010139118F
:102AA000120C000000003312121E1212123300002A
:102AB00000001F0404040404041F000000003E087A
:102AC0000808080808080907000037120A060A1251
:102AD000123700000000070202020202223F00003B
:102AE00000003B1B1B1B15151535000000003B1299
:102AF00016161A1A1217000000000E1111111111EA
:102B0000110E000000000F12120E02020207000058
:102B100000000E1111111117190E180000000F12EC
:102B2000120E0A121237000000001E1101060810D2
:102B3000110F000000001F1504040404040E00001F
:102B40000000331212121212120C00000000331295
:102B5000120A0A0C040400000000151515150E0ACF
:102B60000A0A000000001B0A0A04040A0A1B0000EB
:102B700000001B0A0A0A0404040E000000001F09DA
:102B800008040402121F00001C04040404040404CA
:102B900004041C00000202040404080808101000C9
:102BA0000E0808080808080808080E00040A0000B3
:102BB0000000000000000000000000000000000015
:102BC0000000003F020400000000000000000000C0
:102BD00000000000000C121C123C00000003020266
:102BE000020E1212120E000000000000001C120261
:102BF000120C000000181010101C1212123C0000E1
:102C000000000000000C121E021C0000001824042A
:102C1000041E0404041E000000000000003C120C0E
:102C2000021C221C00030202020E121212370000C4
:102C30000004040000060404040E0000000808005C
:102C4000000C08080808080700030202021A0A0616
:102C50000A1300000007040404040404041F000015
:102C600000000000000F1515151500000000000001
:102C7000000F12121237000000000000000C1212A8
:102C8000120C000000000000000F1212120E0207CA
:102C900000000000001C1212121C1038000000007E
:102CA000001B06020207000000000000001E020CCC
:102CB000101E000000000004041E0404041C000098
:102CC00000000000001B1212123C00000000000077
:102CD000001B0A0A04040000000000000015150E85
:102CE0000A0A000000000000001B0A040A1B000082
:102CF00000000000003312120C0804030000000062
:102D0000001E0804041E000018080808080C080823
:102D1000080818000808080808080808080808082B
:102D20000604040404080404040406001609000050
:102D30000000000000000000000000000000000093
:102D4000000000000000000000000008080808085B
:102D5000080800001818000000486C241200000049
:102D600000000000000000000000002424247F1266
:102D700012127F12121200000000081C2A2A0A0CEC
:102D80001828282A2A1C08080000002225151515D5
:102D90002A585454542200000000000C1212120A47
:102DA00076252911916E000000060604030000003C
:102DB000000000000000000000402010100808087B
:102DC0000808081010204000000204080810101025
:102DD00010101008080402000000000008086B1C16
:102DE0001C6B08080000000000000000080808082C
:102DF0007F08080808000000000000000000000034
:102E000000000000060604030000000000000000AF
:102E1000FE000000000000000000000000000000B4
:102E20000000000006060000000080404020201046
:102E30001008080404020200000000182442424264
:102E40004242424224180000000000080E08080810
:102E500008080808083E00000000003C42424220EA
:102E600020100804427E00000000003C424220186E
:102E700020404042221C0000000000203028242472
:102E800022227E20207800000000007E0202021A2A
:102E900026404042221C0000000000382402021A92
:102EA00026424242241800000000007E2222101018
:102EB00008080808080800000000003C42424224BC
:102EC00018244242423C00000000001824424242C2
:102ED00064584040241C0000000000000000181846
:102EE00000000000181800000000000000000008AA
:102EF0000000000000080804000000402010080442
:102F000002040810204000000000000000007F00C4
:102F100000007F00000000000000000204081020F4
:102F200040201008040200000000003C42424640DD
:102F300020101000181800000000001C225A5555DF
:102F400055552D42221C00000000000808181414DA
:102F5000243C224242E700000000001F2222221EE1
:102F600022424242221F00000000007C4242010136
:102F700001010142221C00000000001F22424242C7
:102F800042424242221F00000000003F4212121E35
:102F900012120242423F00000000003F4212121E85
:102FA00012120202020700000000003C222201016E
:102FB00001712122221C0000000000E7424242422F
:102FC0007E42424242E700000000003E0808080836
:102FD00008080808083E00000000007C10101010CF
:102FE000101010101010110F0000007722120A0E9E
:102FF0000A121222227700000000000702020202D9
:1030000002020202427F00000000007736363636A8
:103010002A2A2A2A2A6B0000000000E346464A4A70
:1030200052525262624700000000001C224141419E
:1030300041414141221C00000000003F4242424207
:103040003E020202020700000000001C2241414132
:1030500041414D53321C60000000003F4242423E5D
:103060001212222242C700000000007C42420204E9
:1030700018204042423E00000000007F4908080836
:1030800008080808081C0000000000E7424242420D
:1030900042424242423C0000000000E742422224F9
:1030A00024141418080800000000006B494949491D
:1030B0005555362222220000000000E74224241841
:1030C0001818242442E7000000000077222214147C
:1030D00008080808081C00000000007E21201010CD
:1030E00008040442423F0000007808080808080865
:1030F000080808080808780000000202040408080C
:103100000810102020204040001E10101010101039
:103110001010101010101E000038440000000000B5
:10312000000000000000000000000000000000009F
:1031300000000000000000FF000608000000000082
:103140000000000000000000000000000000003C43
:103150004278444242FC0000000000030202021ACE
:1031600026424242261A00000000000000000038FB
:1031700044020202443800000000006040404078F1
:103180004442424264D80000000000000000003CBD
:10319000427E0202423C0000000000F08808087EE7
:1031A00008080808083E0000000000000000007C3D
:1031B00022221C023C42423C000000030202023A6E
:1031C0004642424242E700000000000C0C00000EA4
:1031D00008080808083E00000000003030000038F1
:1031E000202020202020221E000000030202027264
:1031F000120A1612227700000000000E08080808C4
:1032000008080808083E0000000000000000007FD9
:103210009292929292B70000000000000000003BE2
:103220004642424242E70000000000000000003C2D
:1032300042424242423C0000000000000000001BED
:1032400026424242221E02070000000000000078D1
:1032500044424242447840E0000000000000007711
:103260004C040404041F0000000000000000007C67
:1032700042023C40423E0000000000000008083EC0
:103280000808080808300000000000000000006383
:103290004242424262DC000000000000000000E701
:1032A000422424140808000000000000000000EB85
:1032B0004949555522220000000000000000007618
:1032C00024181818246E000000000000000000E719
:1032D0004224241418080807000000000000007EA3
:1032E00022100808447E000000C02020202020106A
:1032F000202020202020C0001010101010101010CE
:1033000010101010101010100006080808080810FF
:1033100008080808080806000C32C2000000000077
:10332000000000000000000000000000000000009D
:10333000000000000000000000000000000000008D
:10334000000000000000000000000000000000007D
:10335000000000000000000000000000000000006D
:10336000E000E000E000E000E0004000400040003D
:10337000400040004000000000000000E000E000CD
:10338000E000000000000000000000006006600691
:103390003003980188004400000000000000000095
:1033A000000000000000000000000000000000001D
:1033B000000000000000000000000000000000000D
:1033C00000000802080208020802FE07FE070802C1
:1033D000080204010401FE07FE07040104010401C0
:1033E0000401000000000000000000000000400098
:1033F0004000F00158034C034C034C00580070008F
:10340000E000C001C00140034C034C034C034801E1
:10341000F00040004000000000000000000000003C
:1034200000000E030A01110191009100D10051002A
:10343000FA03AE02600450045004580448048802A1
:1034400084030000000000000000000000000000F5
:10345000000038006400640064006400A4031C01E0
:103460000C011A019200B300E3006300C300A6043C
:103470001C03000000000000000000000C001C0005
:10348000100010000800060000000000000000000E
:10349000000000000000000000000000000000002C
:1034A0000000000000000000000000000004000216
:1034B000000180018000C000C0006000600060006A
:1034C0006000600060006000C000C00080008001FB
:1034D00000010002000400000000000002000400DF
:1034E000080018001000300030006000600060002C
:1034F00060006000600060003000300010001800C4
:1035000008000400020000000000000000000000AD
:10351000000000004000400040004E0E5C07F0013B
:10352000F0015C074E0E400040004000000000002B
:10353000000000000000000000000000000000008B
:10354000000000000000400040004000400040003B
:10355000FE0F40004000400040004000000000001E
:10356000000000000000000000000000000000005B
:10357000000000000000000000000000000000004B
:103580000000000000000000000000000C001C0013
:1035900010001000080006000000000000000000FD
:1035A000000000000000000000000000000000001B
:1035B000FE07000000000000000000000000000006
:1035C00000000000000000000000000000000000FB
:1035D00000000000000000000000000000000000EB
:1035E0000000000000000000000000001C001C00A3
:1035F0001C000000000000000000000000040006A5
:103600000002000300010001800080004000400033
:1036100060002000200010001000080008000C00CE
:10362000040006000200000000000000000000008E
:103630000000F00098010C030C03060606060606BF
:10364000060606060606060606060C030C03980187
:10365000F00000000000000000000000000000007A
:103660000000400060007C006000600060006000BE
:10367000600060006000600060006000600060004A
:10368000FC0300000000000000000000000000003B
:103690000000F80084010203060306030003800112
:1036A0008001C00020001000080204020202FE0394
:1036B000FE03000000000000000000000000000009
:1036C00000007800C4008601860186018001C000E8
:1036D0007000800100010003060306030603840155
:1036E000F8000000000000000000000000000000E2
:1036F00000018001C001C001A0019001900188017A
:10370000840184018201FE07800180018001800123
:10371000E0070000000000000000000000000000C2
:103720000000FC03FC030400040004000400F40097
:103730008C010403000300030603060382018401D5
:10374000F800000000000000000000000000000081
:103750000000E00118030C030C0004000600E60161
:1037600016030E0606060606060604060C021803D5
:10377000F000000000000000000000000000000059
:103780000000F807FC070C0204010401000180009E
:103790008000400040004000600060006000600069
:1037A00060000000000000000000000000000000B9
:1037B0000000F8010C030606060606060E023C038E
:1037C000F000CC01040306060606060606060C03F6
:1037D000F0010000000000000000000000000000F8
:1037E0000000F0000C010C030602060606060606A1
:1037F00006078C0678060006000300030C018C0106
:103800007800000000000000000000000000000040
:1038100000000000000000000000E000E000E00008
:10382000000000000000000000000000E000E000D8
:10383000E0000000000000000000000000000000A8
:1038400000000000000000000000000060006000B8
:103850000000000000000000000000000000600008
:103860006000400020000000000000000000000098
:103870000004000200018000400020001000080049
:103880000400080010002000400080000001000239
:103890000004000000000000000000000000000024
:1038A000000000000000000000000000FE07000013
:1038B000000000000000FE07000000000000000003
:1038C00000000000000000000000000000000000F8
:1038D00004000800100020004000800000010002E9
:1038E00000040002000180004000200010000800D9
:1038F00004000000000000000000000000000000C4
:10390000F0010C030206020606060606000380010B
:103910006000200020002000000000007000700007
:103920007000000000000000000000000000000027
:103930000000E00138060804CC0A640B26092609B9
:10394000160916099609960566030C080C04180258
:10395000E001000000000000000000000000000086
:103960000000600060007000D000D000C800880136
:1039700088018801F8010403040304030406060611
:103980000F0F000000000000000000000000000019
:103990000000FF00860106030603060306038601F6
:1039A000FE000603060206060606060606060603CF
:1039B000FF01000000000000000000000000000007
:1039C0000000E00718060C040C04040006000600C2
:1039D000060006000600060006040C040C0218018E
:1039E000F0000000000000000000000000000000E7
:1039F00000007F008601060306030606060606068B
:103A00000606060606060606060606030603C601A1
:103A10007F00000000000000000000000000000027
:103A20000000FF030602060406000600860086006A
:103A3000FE00860086000600060006040604060254
:103A4000FF03000000000000000000000000000074
:103A50000000FF0306030604060406008600860035
:103A6000FE0086008600060006000600060006002E
:103A70000F00000000000000000000000000000037
:103A80000000F00218030C020C02040006000600FD
:103A900006000600C60F060306030C030C031803FA
:103AA000F000000000000000000000000000000026
:103AB00000000F0F060606060606060606060606A0
:103AC000FE0706060606060606060606060606069D
:103AD0000F0F0000000000000000000000000000C8
:103AE0000000FC0360006000600060006000600097
:103AF00060006000600060006000600060006000C6
:103B0000FC030000000000000000000000000000B6
:103B10000000F00F800180018001800180018001A0
:103B2000800180018001800180018001800180018D
:103B300080018601C6007C0000000000000000003B
:103B40000000CF070601860046004600260036002A
:103B50003E006E00E600C600C601860106030607A9
:103B60008F0F0000000000000000000000000000B7
:103B700000000F0006000600060006000600060012
:103B800006000600060006000600060406040602FB
:103B9000FF03000000000000000000000000000023
:103BA00000000F0F0E070E070E079A069A069A06D8
:103BB0009A065A06720672067206720622062206D5
:103BC000270F0000000000000000000000000000BF
:103BD0000000070E0E040E041A041A0432046204D4
:103BE0006204C204C204820502070207020602063A
:103BF00007040000000000000000000000000000BA
:103C00000000F00098010C030C02060606060606EA
:103C1000060606060606060606060C020C039801B2
:103C2000F0000000000000000000000000000000A4
:103C30000000FF010603060606060606060606063F
:103C40000603FE0106000600060006000600060048
:103C50000F00000000000000000000000000000055
:103C60000000F00098010C030C020606060606068A
:103C7000060606060606060676064C028C03880132
:103C8000F0018007000300000000000000000000B9
:103C90000000FF01060306060606060606060603E2
:103CA000FE006600C600C600860186010603060304
:103CB0000F0E0000000000000000000000000000E7
:103CC0000000F8040C070604060406000E003C0081
:103CD000F000C003000300060206020606060E03FB
:103CE000F2010000000000000000000000000000E1
:103CF0000000FE0762046108610860006000600067
:103D000060006000600060006000600060006000B3
:103D1000F0000000000000000000000000000000B3
:103D200000000F0E0604060406040604060406043A
:103D300006040604060406040604060406040C022F
:103D4000F80100000000000000000000000000007A
:103D500000001F0F0E060C020C020C020C011801D1
:103D6000180118011801B000B000B000F0006000A8
:103D700060000000000000000000000000000000E3
:103D80000000EF0E6604660466026602E602EC02BC
:103D9000EC02DC01DC01DC01DC019C018800880014
:103DA000880000000000000000000000000000008B
:103DB00000009E070C03180118019800B000700065
:103DC00060006000E000D000D001980188010C0381
:103DD0009E0700000000000000000000000000003E
:103DE00000001F0F0E060C020C0118011801B00094
:103DF000B000700060006000600060006000600063
:103E0000F8010000000000000000000000000000B9
:103E10000000FC07040382038001C001C000C00051
:103E20006000600030003000180018041C040C0210
:103E3000FE0300000000000000000000E00720007A
:103E40002000200020002000200020002000200072
:103E50002000200020002000200020002000200062
:103E600020002000E007000000000000000000002B
:103E700004000800080008001000100020002000C6
:103E80002000400040008000800080000001000110
:103E9000000200020002000400000000FC0080009C
:103EA0008000800080008000800080008000800012
:103EB0008000800080008000800080008000800002
:103EC00080008000FC00000000000000E000B00165
:103ED00008020000000000000000000000000000D8
:103EE00000000000000000000000000000000000D2
:103EF00000000000000000000000000000000000C2
:103F000000000000000000000000000000000000B1
:103F100000000000000000000000000000000000A1
:103F2000000000000000FF0F00000000180060000B
:103F30000000000000000000000000000000000081
:103F40000000000000000000000000000000000071
:103F50000000000000000000000000000000000061
:103F6000000000000000000000000000F0010C0351
:103F70000C03E00338030C030603060306038E0B51
:103F80007C0F0000000000000000000000000000A6
:103F900008000E000C000C000C000C00CC013C03CF
:103FA0001C060C060C060C060C060C060C021C0368
:103FB000F40100000000000000000000000000000C
:103FC000000000000000000000000000F0008C0174
:103FD0008C01860106000600060006020C020C0198
:103FE000F0000000000000000000000000000000E1
:103FF00000028003000300030003000378038C0326
:104000000C030603060306030603060304038C07DA
:104010007801000000000000000000000000000027
:10402000000000000000000000000000E001180394
:1040300008060C06FC070C000C000C0018043802E3
:10404000E00100000000000000000000000000008F
:104050000000C0036006300630003000FE03300070
:1040600030003000300030003000300030003000D0
:10407000FC01000000000000000000000000000043
:10408000000000000000000000000000F00E980991
:104090000C030C030C039801F8000C007C00F803DF
:1040A000060606060E07F8010000000000000000EA
:1040B00008000E000C000C000C000C00EC011C03AE
:1040C0000C030C030C030C030C030C030C030C0378
:1040D0009E0700000000000000000000000000003B
:1040E0000000600060000000000000007C00600034
:1040F00060006000600060006000600060006000C0
:10410000FC030000000000000000000000000000B0
:10411000000080018001000000000000F00180012B
:104120008001800180018001800180018001800187
:1041300080018001CC007C00000000000000000035
:1041400008000E000C000C000C000C00CC038C00CE
:10415000CC004C006C007C00DC00CC008C018C019D
:104160009E070000000000000000000000000000AA
:1041700040007C0060006000600060006000600043
:10418000600060006000600060006000600060002F
:10419000FC03000000000000000000000000000020
:1041A0000000000000000000000000007707EE069D
:1041B000660666066606660666066606660666069F
:1041C000EF0E0000000000000000000000000000F2
:1041D000000000000000000000000000CE013C03D1
:1041E0000C030C030C030C030C030C030C030C0357
:1041F0009E0700000000000000000000000000001A
:10420000000000000000000000000000F000980125
:104210000C03060606060606060606060C030C0335
:10422000F00000000000000000000000000000009E
:10423000000000000000000000000000EE011C0370
:104240000C060C060C060C060C060C060C031C03D4
:10425000EC010C000C003E0000000000000000001B
:1042600000000000000000000000000078028C0345
:104270000C030603060306030603060304038C036C
:10428000780300030003C0070000000000000000E6
:104290000000000000000000000000009F0758061A
:1042A000380018001800180018001800180018002E
:1042B000FF000000000000000000000000000000FF
:1042C000000000000000000000000000F0071806D9
:1042D0000C040C003800F0018003040604060C03F3
:1042E000FC010000000000000000000000000000D1
:1042F000000000002000200030003000FE013000EF
:104300003000300030003000300030003002300229
:10431000E0010000000000000000000000000000BC
:104320000000000000000000000008028E030C03E3
:104330000C030C030C030C030C030C030C039C0771
:1043400078010000000000000000000000000000F4
:104350000000000000000000000000003E0F1C06EE
:1043600018021802300130013001E000E000E000E6
:1043700040000000000000000000000000000000FD
:10438000000000000000000000000000EF0DC60467
:10439000C604E604EC04AC039C039C039C030801E4
:1043A0000801000000000000000000000000000004
:1043B000000000000000000000000000BE0718011F
:1043C0009801B00070006000E000D0009801880300
:1043D000DE070000000000000000000000000000F8
:1043E000000000000000000000000000BE071C01EB
:1043F00018011801B000B000B0006000600040007B
:104400002000200014001C0000000000000000003C
:10441000000000000000000000000000FC03840118
:10442000C401C000E00060007000300438041806C9
:10443000FC030000000000000000000000038001F9
:104440008000800080008000800080008000C0002C
:104450002000C0008000800080008000800080007C
:104460008000800100030000400040004000400048
:10447000400040004000400040004000400040003C
:10448000400040004000400040004000400040002C
:104490004000400040004000000000000C001800F8
:1044A000100010001000100010001000100030006C
:1044B000400030001000100010001000100010002C
:1044C000100018000C00000000001C00240042082E
:1044D000820400070000000000000000000000004F
:1044E00000000000000000000000000000000000CC
:1044F00000000000000000000000000000000000BC
:1045000000000000000000000000000000000000AB
:10451000000000000000000000000000000000009B
:10452000000000000000000000000000000000008B
:10453000000000000000000000000000000000007B
:104540000000C001C001C001C001C001C001C00124
:1045500080008000800080008000800080000000DB
:104560000000000000008001C003C00380010000C3
:104570000000000000000000000000000000E01C3F
:10458000E01CF01E700E38071803080184000000BC
:10459000000000000000000000000000000000001B
:1045A000000000000000000000000000000000000B
:1045B00000000000000000000000000000000000FB
:1045C0000000000020102010201020102010FE7F7E
:1045D000FE7F1008100810081008100810081008B6
:1045E000FE7FFE7F08040804080408040804000095
:1045F00000000000000000000000000000000000BB
:1046000000010001C007601910311831183918393C
:1046100038017001E001C0038007000F001D003960
:1046200000311C311C310C310C11180DE007000158
:104630000001000100000000000000000000000078
:10464000000000001C1036186308630C6304630448
:10465000630263026301361D9C37802280634063DE
:10466000406320632063306310221836081C00006A
:10467000000000000000000000000000000000003A
:1046800000000000F00098018C018C018C018C016D
:104690008C00CC007800183E1C08360832086304F1
:1046A0006304C304C303834306438E26781C0000BF
:1046B00000000000000000000000000000001C00DE
:1046C0003C003C003000300010000C0006000000F0
:1046D00000000000000000000000000000000000DA
:1046E00000000000000000000000000000000000CA
:1046F000000000000000000000000000000000407A
:10470000002000100008000C000400060003000355
:10471000000380018001800180018001800180010F
:10472000800100030003000300060006000C0008DF
:104730000010002000400000000000000000020007
:10474000040008001000300020006000C000C0001D
:10475000C000800180018001800180018001800112
:104760008001C000C000C000600060003000100088
:10477000080004000200000000000000000000002B
:104780000000000000000000000180038003000121
:104790001C713C79783DC0070001C007783D3C7929
:1047A0001C710001800380038001000000000000F4
:1047B00000000000000000000000000000000000F9
:1047C00000000000000000000000000100010001E6
:1047D0000001000100010001FC7F00010001000157
:1047E00000010001000100010000000000000000C5
:1047F00000000000000000000000000000000000B9
:1048000000000000000000000000000000000000A8
:104810000000000000000000000000000000000098
:1048200000000000000000001C003C003C003000C4
:10483000300010000C000600000000000000000026
:104840000000000000000000000000000000000068
:104850000000000000000000FE7F000000000000DB
:104860000000000000000000000000000000000048
:104870000000000000000000000000000000000038
:104880000000000000000000000000000000000028
:104890000000000000000000000000000000000018
:1048A00000000000000018003C003C001800000060
:1048B00000000000000000000000000000000040B8
:1048C000006000200030001000180008000C0004F8
:1048D000000600020003000180018000C0004000CB
:1048E0006000200030001000180008000C000400D8
:1048F00006000200000000000000000000000000B0
:1049000000000000C007600C301818301830182064
:104910000C600C600C600C600C600C600C600C6037
:104920000C601820183018303018600CC0070000D8
:104930000000000000000000000000000000000077
:104940000000000000018001F80180018001800169
:10495000800180018001800180018001800180014F
:1049600080018001800180018001C003F81F0000E8
:104970000000000000000000000000000000000037
:1049800000000000E007101C0818043004300C3050
:104990000C30003000180008000400020001800004
:1049A00040002020102008200430FC1FFC1F0000C5
:1049B00000000000000000000000000000000000F7
:1049C00000000000E003180E0C0C0C180C180C185A
:1049D0000018000C0006C003000E00180010003084
:1049E00000300C300C300C100C18180CE0030000D8
:1049F00000000000000000000000000000000000B7
:104A000000000000000C000E000E000F800E800E53
:104A1000400E600E200E100E100E080E040E040E36
:104A2000FE7F000E000E000E000E000E000EC07F76
:104A30000000000000000000000000000000000076
:104A400000000000F03FF03F1000100010000800D0
:104A50000800C807280C1818081000300030003073
:104A600000300C300C3004180418080CF00300005F
:104A70000000000000000000000000000000000036
:104A800000000000800FC010203010301800180007
:104A900008000C008C0F6C183C301C600C600C6023
:104AA0000C600C601860182030306018C0070000DF
:104AB00000000000000000000000000000000000F6
:104AC00000000000F83FF83F1C100C080408040424
:104AD00000040002000200010001000180008000CB
:104AE0008000C000C000C000C000C000C0000000C6
:104AF00000000000000000000000000000000000B6
:104B000000000000E007300C18180C300C300C309E
:104B10001C3038187008E007B007180E0C1C063857
:104B200006300630063006300C18180CE003000082
:104B30000000000000000000000000000000000075
:104B400000000000E00318040C080C1806100630E2
:104B500006300630063006380C3C1836F03100308E
:104B60000018001800180C0C0C060C03F0010000D3
:104B70000000000000000000000000000000000035
:104B80000000000000000000000000000000000025
:104B900000008001C003C00380010000000000008D
:104BA0000000000000008001C003C003800100007D
:104BB00000000000000000000000000000000000F5
:104BC00000000000000000000000000000000000E5
:104BD0000000C000C0000000000000000000000055
:104BE00000000000000000000000C000C0008000C5
:104BF00080004000400000000000000000000000B5
:104C000000000020001000080004000600038001DE
:104C1000C0006000300018000C0018003000600078
:104C2000C0008001000300060004000800100020FE
:104C30000000000000000000000000000000000074
:104C40000000000000000000000000000000000064
:104C50000000FE7F00000000000000000000FE7F5A
:104C60000000000000000000000000000000000044
:104C70000000000000000000000000000000000034
:104C8000000004000800100020006000C000800147
:104C900000030006000C001800300018000C00068D
:104CA00000038001C0006000200010000800040024
:104CB00000000000000000000000000000000000F4
:104CC0000000C0073018083008600C601C601C60D1
:104CD0001C600030001C0006000180008000800085
:104CE0008000000000008001C003C00380010000BC
:104CF00000000000000000000000000000000000B4
:104D000000000000C0076018103018200C2F8C4DD8
:104D1000864CC64CC64C664C66446644662666267F
:104D20006615CC1C0C40082018303018C007000055
:104D30000000000000000000000000000000000073
:104D400000000001C001C001C00140016003200358
:104D5000200320033006100610061006F80F080C7A
:104D6000080C080C0C0C0418041806181F7C000012
:104D70000000000000000000000000000000000033
:104D800000000000FE07181C1838183018301830C2
:104D900018301818180CF807181818301820186050
:104DA000186018601860186018301818FE0F00009E
:104DB00000000000000000000000000000000000F3
:104DC00000000000C0276038103018200C400C4054
:104DD00004000600060006000600060006000600A5
:104DE00006000C400C400C2018303018C0070000A2
:104DF00000000000000000000000000000000000B3
:104E000000000000FE03180E181818301830183073
:104E100018601860186018601860186018601860D2
:104E200018601830183018101818180EFE030000FB
:104E30000000000000000000000000000000000072
:104E400000000000FE3F18301820186018401800BD
:104E500018081808180CF80F180C1808180818006B
:104E6000180018001840184018201830FE3F0000A5
:104E70000000000000000000000000000000000032
:104E800000000000FE7F1870184018C0188018003D
:104E9000181018101818F81F1818181018101800E3
:104EA0001800180018001800180018007E000000F4
:104EB00000000000000000000000000000000000F2
:104EC00000000000C013701C101018100C200C20E3
:104ED00004000600060006000600060006FC063078
:104EE00006300C300C30183018303008C007000085
:104EF00000000000000000000000000000000000B2
:104F0000000000003F7E0C180C180C180C180C1830
:104F10000C180C180C180C18FC1F0C180C180C187A
:104F20000C180C180C180C180C180C183F7E0000EC
:104F30000000000000000000000000000000000071
:104F400000000000F81F80018001800180018001C5
:104F50008001800180018001800180018001800149
:104F6000800180018001800180018001F81F000024
:104F70000000000000000000000000000000000031
:104F800000000000E07F00060006000600060006A4
:104F900000060006000600060006000600060006E1
:104FA00000060006000600060006000600060006D1
:104FB0000E060E038E01FC00000000000000000041
:104FC000000000007E7C1818180818041806180243
:104FD000180198019801D801B8033803180718067A
:104FE000180E180C181C1818183018307EFC000009
:104FF00000000000000000000000000000000000B1
:10500000000000007E0018001800180018001800AA
:1050100018001800180018001800180018001800D0
:10502000180018001840184018201830FE3F0000E3
:105030000000000000000000000000000000000070
:10504000000000001FF81C381C381C381C3C34348D
:105050003434343434367432643264326432643119
:10506000C431C431C431C430C43084309FFC00002A
:105070000000000000000000000000000000000030
:10508000000000001F7C1C103C1034103410741001
:105090006410E410C410C4118411841304130417A1
:1050A0000416041E041C041C041C04181F18000011
:1050B00000000000000000000000000000000000F0
:1050C00000000000C003300C181808100C300C3021
:1050D00006600660066006600660066006600660A0
:1050E00006600C200C3008101818300CC0030000AB
:1050F00000000000000000000000000000000000B0
:1051000000000000FE0F18181830186018601860B2
:105110001860186018301818F80F180018001800D8
:105120001800180018001800180018007E00000071
:10513000000000000000000000000000000000006F
:1051400000000000C003300C18180C100C300C20AC
:10515000066006600660066006600660066006601F
:105160000660E4612C331C321816300EC007004C68
:10517000007C00380000000000000000000000007B
:1051800000000000FE07181C1838183018301830BE
:1051900018301818180CF807980318031807180681
:1051A0001806180E180C180C181C18187E78000019
:1051B00000000000000000000000000000000000EF
:1051C00000000000E027303818300C200C200C00C4
:1051D0000C0018007800E003800F001E00380070FB
:1051E000006004600460086018303818C80F0000C0
:1051F00000000000000000000000000000000000AF
:1052000000000000FC3F8C218461824182418001CA
:105210008001800180018001800180018001800186
:10522000800180018001800180018001E007000091
:10523000000000000000000000000000000000006E
:10524000000000003F7C0C100C100C100C100C1017
:105250000C100C100C100C100C100C100C100C106E
:105260000C100C100C100C1008083804E00300009F
:10527000000000000000000000000000000000002E
:10528000000000003EF818201820182030103010C0
:1052900030103010600860086008E00CC004C004E2
:1052A000C00480038003800380030001000100002C
:1052B00000000000000000000000000000000000EE
:1052C00000000000DFF38661862186218C210C21FD
:1052D0008C238C138C138C134C1358125816580EA5
:1052E000380E380E380E300C100410041004000074
:1052F00000000000000000000000000000000000AE
:10530000000000007E3E18083808300430047002A7
:105310006002E001C001C00180018003400340073A
:1053200020062006100C100C081808183E7C0000FF
:10533000000000000000000000000000000000006D
:10534000000000007E7C1C10181018083008300C7B
:10535000700460046002C002C002C00180018001CC
:10536000800180018001800180018001E007000050
:10537000000000000000000000000000000000002D
:1053800000000000F83F18180818040C040E00066E
:105390000007000380038001C001C000E00060003E
:1053A00070003000382018201C100C18FE1F000060
:1053B0000000000000000000000000000000C03FEE
:1053C00040004000400040004000400040004000DD
:1053D00040004000400040004000400040004000CD
:1053E00040004000400040004000400040004000BD
:1053F0004000C03F0000000000000000000000006E
:1054000000000800180018001000300020006000A4
:1054100060004000C00080008001800100010003A6
:105420000002000600060004000C00080018001826
:105430000010003000200000000000000000FC030D
:10544000000200020002000200020002000200024C
:10545000000200020002000200020002000200023C
:10546000000200020002000200020002000200022C
:105470000002FC03000000000000000000008007A4
:10548000C00620081010000000000000000000000E
:10549000000000000000000000000000000000000C
:1054A00000000000000000000000000000000000FC
:1054B00000000000000000000000000000000000EC
:1054C00000000000000000000000000000000000DC
:1054D00000000000000000000000000000000000CC
:1054E00000000000000000000000000000000000BC
:1054F000000000000000FFFF000000000000780036
:10550000C0000001000000000000000000000000DA
:10551000000000000000000000000000000000008B
:10552000000000000000000000000000000000007B
:10553000000000000000000000000000000000006B
:10554000000000000000000000000000000000005B
:105550000000F00318060C0C0C0C000C800F700CF3
:105560001C0C0C0C060C060C064C0C4FF8380000FA
:10557000000000000000000000000000000000002B
:10558000000010001E001800180018001800180075
:105590001800180FD8183830386018601860186074
:1055A000186018601860182038307818C807000094
:1055B00000000000000000000000000000000000EB
:1055C00000000000000000000000000000000000DB
:1055D0000000C007700C181818180C180C000C00EC
:1055E0000C000C000C20182018103008C007000018
:1055F00000000000000000000000000000000000AB
:1056000000000010001E00180018001800180018F4
:105610000018E01B301C181818180C180C180C185F
:105620000C180C180C180818181C307AE009000027
:10563000000000000000000000000000000000006A
:10564000000000000000000000000000000000005A
:105650000000C007300C181808100C300C30FC3F4C
:105660000C000C000C00182018107018C007000067
:10567000000000000000000000000000000000002A
:1056800000000000003E80C380C0C0C0C000C00059
:10569000C000FC1FC000C000C000C000C000C000AF
:1056A000C000C000C000C000C000C000F80F000073
:1056B00000000000000000000000000000000000EA
:1056C00000000000000000000000000000000000DA
:1056D0000000C077306C1018181818181818101817
:1056E000300CF00718001800F00FF03F08700C6045
:1056F0000C600C603838E00F000000000000000073
:10570000000010001E0018001800180018001800F3
:105710001800980FD8183830183018301830183052
:105720001830183018301830183018307EFC00004F
:105730000000000000000000000000000000000069
:1057400000000000800380038003000000000000D0
:105750000001F80180018001800180018001800149
:10576000800180018001800180018001F81F00001C
:105770000000000000000000000000000000000029
:105780000000000000380038003800000000000071
:105790000010801F001800180018001800180018CA
:1057A0000018001800180018001800180018001839
:1057B0000018180C1806F00300000000000000009C
:1057C000000010001E001800180018001800180033
:1057D0001800183E180C1806180318019801D80173
:1057E000380318071806180C181C18187E7C0000BF
:1057F00000000000000000000000000000000000A9
:1058000000000001F8018001800180018001800119
:105810008001800180018001800180018001800180
:10582000800180018001800180018001F81F00005B
:105830000000000000000000000000000000000068
:105840000000000000000000000000000000000058
:105850000800EE1C9C338C318C318C318C318C31B6
:105860008C318C318C318C318C318C31DE7B000071
:105870000000000000000000000000000000000028
:105880000000000000000000000000000000000018
:1058900010001E0FD8183830183018301830183053
:1058A0001830183018301830183018307EFC0000CE
:1058B00000000000000000000000000000000000E8
:1058C00000000000000000000000000000000000D8
:1058D0000000C007701C103018300C600C600C60A9
:1058E0000C600C600C60183018303018C0070000D5
:1058F00000000000000000000000000000000000A8
:105900000000000000000000000000000000000097
:1059100010009E0F58183830182018601860186052
:105920001860186018601830383078189807180018
:105930001800180018007E000000000000000000A1
:105940000000000000000000000000000000000057
:105950000000C023303C183818300C300C300C30AC
:105960000C300C300C3008301838303CE03300304C
:1059700000300030003000FC00000000000000009B
:105980000000000000000000000000000000000017
:1059900060007E3C60666061E000E00060006000E6
:1059A000600060006000600060006000FE070000B2
:1059B00000000000000000000000000000000000E7
:1059C00000000000000000000000000000000000D7
:1059D0000000E02730381830182018007000E0036D
:1059E000800F001C043004300C301C18EC0F000039
:1059F00000000000000000000000000000000000A7
:105A00000000000000000000800080008000C00056
:105A1000E000FC1FC000C000C000C000C000C0000B
:105A2000C000C000C000C020C0208011000F0000D6
:105A30000000000000000000000000000000000066
:105A40000000000000000000000000000000000056
:105A500010201E3C1830183018301830183018300C
:105A60001830183018301830183830F4E0130000AF
:105A70000000000000000000000000000000000026
:105A80000000000000000000000000000000000016
:105A900000007E3C181818083808300430047002E2
:105AA00060026002E001C001C001C000800000008F
:105AB00000000000000000000000000000000000E6
:105AC00000000000000000000000000000000000D6
:105AD0000000DFF78E630C238C238C23981398131C
